{
  "_format": "hh-sol-artifact-1",
  "contractName": "DIDRegistry",
  "sourceName": "src/contracts/DIDRegistry.sol",
  "abi": [
    {
      "anonymous": false,
      "inputs": [
        {
          "indexed": true,
          "internalType": "string",
          "name": "did",
          "type": "string"
        },
        {
          "indexed": false,
          "internalType": "uint256",
          "name": "timestamp",
          "type": "uint256"
        }
      ],
      "name": "DIDDeactivated",
      "type": "event"
    },
    {
      "anonymous": false,
      "inputs": [
        {
          "indexed": true,
          "internalType": "string",
          "name": "did",
          "type": "string"
        },
        {
          "indexed": true,
          "internalType": "address",
          "name": "controller",
          "type": "address"
        },
        {
          "indexed": false,
          "internalType": "uint256",
          "name": "timestamp",
          "type": "uint256"
        }
      ],
      "name": "DIDRegistered",
      "type": "event"
    },
    {
      "anonymous": false,
      "inputs": [
        {
          "indexed": true,
          "internalType": "string",
          "name": "did",
          "type": "string"
        },
        {
          "indexed": false,
          "internalType": "uint256",
          "name": "timestamp",
          "type": "uint256"
        }
      ],
      "name": "DIDUpdated",
      "type": "event"
    },
    {
      "inputs": [
        {
          "internalType": "address",
          "name": "",
          "type": "address"
        },
        {
          "internalType": "uint256",
          "name": "",
          "type": "uint256"
        }
      ],
      "name": "controllerDIDs",
      "outputs": [
        {
          "internalType": "string",
          "name": "",
          "type": "string"
        }
      ],
      "stateMutability": "view",
      "type": "function"
    },
    {
      "inputs": [
        {
          "internalType": "string",
          "name": "did",
          "type": "string"
        }
      ],
      "name": "deactivateDID",
      "outputs": [],
      "stateMutability": "nonpayable",
      "type": "function"
    },
    {
      "inputs": [
        {
          "internalType": "string",
          "name": "",
          "type": "string"
        }
      ],
      "name": "dids",
      "outputs": [
        {
          "internalType": "string",
          "name": "didString",
          "type": "string"
        },
        {
          "internalType": "string",
          "name": "publicKeyHex",
          "type": "string"
        },
        {
          "internalType": "address",
          "name": "controller",
          "type": "address"
        },
        {
          "internalType": "bool",
          "name": "active",
          "type": "bool"
        },
        {
          "internalType": "uint256",
          "name": "createdAt",
          "type": "uint256"
        },
        {
          "internalType": "uint256",
          "name": "updatedAt",
          "type": "uint256"
        }
      ],
      "stateMutability": "view",
      "type": "function"
    },
    {
      "inputs": [
        {
          "internalType": "address",
          "name": "controller",
          "type": "address"
        }
      ],
      "name": "getDIDsByController",
      "outputs": [
        {
          "internalType": "string[]",
          "name": "",
          "type": "string[]"
        }
      ],
      "stateMutability": "view",
      "type": "function"
    },
    {
      "inputs": [
        {
          "internalType": "string",
          "name": "did",
          "type": "string"
        }
      ],
      "name": "isDIDActive",
      "outputs": [
        {
          "internalType": "bool",
          "name": "",
          "type": "bool"
        }
      ],
      "stateMutability": "view",
      "type": "function"
    },
    {
      "inputs": [
        {
          "internalType": "string",
          "name": "did",
          "type": "string"
        },
        {
          "internalType": "string",
          "name": "publicKeyHex",
          "type": "string"
        }
      ],
      "name": "registerDID",
      "outputs": [],
      "stateMutability": "nonpayable",
      "type": "function"
    },
    {
      "inputs": [
        {
          "internalType": "string",
          "name": "did",
          "type": "string"
        }
      ],
      "name": "resolveDID",
      "outputs": [
        {
          "internalType": "string",
          "name": "didString",
          "type": "string"
        },
        {
          "internalType": "string",
          "name": "publicKeyHex",
          "type": "string"
        },
        {
          "internalType": "address",
          "name": "controller",
          "type": "address"
        },
        {
          "internalType": "bool",
          "name": "active",
          "type": "bool"
        },
        {
          "internalType": "uint256",
          "name": "createdAt",
          "type": "uint256"
        },
        {
          "internalType": "uint256",
          "name": "updatedAt",
          "type": "uint256"
        }
      ],
      "stateMutability": "view",
      "type": "function"
    },
    {
      "inputs": [
        {
          "internalType": "string",
          "name": "did",
          "type": "string"
        },
        {
          "internalType": "string",
          "name": "newPublicKeyHex",
          "type": "string"
        }
      ],
      "name": "updateDID",
      "outputs": [],
      "stateMutability": "nonpayable",
      "type": "function"
    }
  ],
  "bytecode": "0x608060405234801561001057600080fd5b50610f29806100206000396000f3fe608060405234801561001057600080fd5b50600436106100885760003560e01c8063b363cff31161005b578063b363cff314610102578063b42a02b514610122578063beeed39f14610135578063f44ab5161461015557600080fd5b806320c9d73a1461008d5780633b253b23146100b55780637e5c39e9146100ca5780639d7f0bbf146100dd575b600080fd5b6100a061009b366004610b6c565b610168565b60405190151581526020015b60405180910390f35b6100c86100c3366004610b6c565b6101d3565b005b6100c86100d8366004610ba9565b610305565b6100f06100eb366004610b6c565b610511565b6040516100ac96959493929190610c5d565b610115610110366004610ccd565b61069e565b6040516100ac9190610cef565b6100c8610130366004610ba9565b61078d565b610148610143366004610d51565b6108b1565b6040516100ac9190610d7b565b6100f0610163366004610b6c565b61096a565b600080826040516101799190610d8e565b9081526040519081900360200190206002015460ff600160a01b9091041680156101cd5750600080836040516101af9190610d8e565b90815260405190819003602001902080546101c990610daa565b9050115b92915050565b80336001600160a01b03166000826040516101ee9190610d8e565b908152604051908190036020019020600201546001600160a01b03161461025c5760405162461bcd60e51b815260206004820152601f60248201527f44494452656769737472793a206e6f742074686520636f6e74726f6c6c65720060448201526064015b60405180910390fd5b6000808360405161026d9190610d8e565b908152602001604051809103902060020160146101000a81548160ff021916908315150217905550426000836040516102a69190610d8e565b908152604051908190036020018120600401919091556102c7908390610d8e565b604051908190038120428252907fa462dbc9bc21feff6ddeab7dc5f3bfc006aa8fcd156b8b1b30e02f1d1dd197d89060200160405180910390a25050565b6000826040516103159190610d8e565b908152604051908190036020019020805461032f90610daa565b15905061038a5760405162461bcd60e51b815260206004820152602360248201527f44494452656769737472793a2044494420616c726561647920726567697374656044820152621c995960ea1b6064820152608401610253565b60008251116103db5760405162461bcd60e51b815260206004820181905260248201527f44494452656769737472793a204449442063616e6e6f7420626520656d7074796044820152606401610253565b6040805160c08101825283815260208101839052338183015260016060820152426080820181905260a08201529051600090610418908590610d8e565b908152604051908190036020019020815181906104359082610e33565b506020820151600182019061044a9082610e33565b5060408281015160028301805460608601511515600160a01b026001600160a81b03199091166001600160a01b03909316929092179190911790556080830151600383015560a09092015160049091015533600090815260016020818152928220805491820181558252919020016104c28382610e33565b5060405133906104d3908490610d8e565b604051908190038120428252907f2247d854a9f35bfa7df0a5fd500079f0ceb7a58d0c7ad79f1c49d1a4d27eae4a9060200160405180910390a35050565b6060806000806000806000808860405161052b9190610d8e565b9081526040519081900360200190206002810154600382015460048301548354939450849360018501936001600160a01b0381169360ff600160a01b90920491909116929091869061057c90610daa565b80601f01602080910402602001604051908101604052809291908181526020018280546105a890610daa565b80156105f55780601f106105ca576101008083540402835291602001916105f5565b820191906000526020600020905b8154815290600101906020018083116105d857829003601f168201915b5050505050955084805461060890610daa565b80601f016020809104026020016040519081016040528092919081815260200182805461063490610daa565b80156106815780601f1061065657610100808354040283529160200191610681565b820191906000526020600020905b81548152906001019060200180831161066457829003601f168201915b505050505094509650965096509650965096505091939550919395565b6001600160a01b0381166000908152600160209081526040808320805482518185028101850190935280835260609492939192909184015b828210156107825783829060005260206000200180546106f590610daa565b80601f016020809104026020016040519081016040528092919081815260200182805461072190610daa565b801561076e5780601f106107435761010080835404028352916020019161076e565b820191906000526020600020905b81548152906001019060200180831161075157829003601f168201915b5050505050815260200190600101906106d6565b505050509050919050565b81336001600160a01b03166000826040516107a89190610d8e565b908152604051908190036020019020600201546001600160a01b0316146108115760405162461bcd60e51b815260206004820152601f60248201527f44494452656769737472793a206e6f742074686520636f6e74726f6c6c6572006044820152606401610253565b816000846040516108229190610d8e565b9081526020016040518091039020600101908161083f9190610e33565b50426000846040516108519190610d8e565b90815260405190819003602001812060040191909155610872908490610d8e565b604051908190038120428252907f7d3c1c12143e97b7e778b120465649d38afc23c41117c80cf79e1a65b4c54e0e9060200160405180910390a2505050565b600160205281600052604060002081815481106108cd57600080fd5b906000526020600020016000915091505080546108e990610daa565b80601f016020809104026020016040519081016040528092919081815260200182805461091590610daa565b80156109625780601f1061093757610100808354040283529160200191610962565b820191906000526020600020905b81548152906001019060200180831161094557829003601f168201915b505050505081565b805160208183018101805160008252928201919093012091528054819061099090610daa565b80601f01602080910402602001604051908101604052809291908181526020018280546109bc90610daa565b8015610a095780601f106109de57610100808354040283529160200191610a09565b820191906000526020600020905b8154815290600101906020018083116109ec57829003601f168201915b505050505090806001018054610a1e90610daa565b80601f0160208091040260200160405190810160405280929190818152602001828054610a4a90610daa565b8015610a975780601f10610a6c57610100808354040283529160200191610a97565b820191906000526020600020905b815481529060010190602001808311610a7a57829003601f168201915b505050506002830154600384015460049094015492936001600160a01b03821693600160a01b90920460ff1692509086565b634e487b7160e01b600052604160045260246000fd5b600082601f830112610af057600080fd5b813567ffffffffffffffff80821115610b0b57610b0b610ac9565b604051601f8301601f19908116603f01168101908282118183101715610b3357610b33610ac9565b81604052838152866020858801011115610b4c57600080fd5b836020870160208301376000602085830101528094505050505092915050565b600060208284031215610b7e57600080fd5b813567ffffffffffffffff811115610b9557600080fd5b610ba184828501610adf565b949350505050565b60008060408385031215610bbc57600080fd5b823567ffffffffffffffff80821115610bd457600080fd5b610be086838701610adf565b93506020850135915080821115610bf657600080fd5b50610c0385828601610adf565b9150509250929050565b60005b83811015610c28578181015183820152602001610c10565b50506000910152565b60008151808452610c49816020860160208601610c0d565b601f01601f19169290920160200192915050565b60c081526000610c7060c0830189610c31565b8281036020840152610c828189610c31565b6001600160a01b0397909716604084015250509215156060840152608083019190915260a09091015292915050565b80356001600160a01b0381168114610cc857600080fd5b919050565b600060208284031215610cdf57600080fd5b610ce882610cb1565b9392505050565b6000602080830181845280855180835260408601915060408160051b870101925083870160005b82811015610d4457603f19888603018452610d32858351610c31565b94509285019290850190600101610d16565b5092979650505050505050565b60008060408385031215610d6457600080fd5b610d6d83610cb1565b946020939093013593505050565b602081526000610ce86020830184610c31565b60008251610da0818460208701610c0d565b9190910192915050565b600181811c90821680610dbe57607f821691505b602082108103610dde57634e487b7160e01b600052602260045260246000fd5b50919050565b601f821115610e2e57600081815260208120601f850160051c81016020861015610e0b5750805b601f850160051c820191505b81811015610e2a57828155600101610e17565b5050505b505050565b815167ffffffffffffffff811115610e4d57610e4d610ac9565b610e6181610e5b8454610daa565b84610de4565b602080601f831160018114610e965760008415610e7e5750858301515b600019600386901b1c1916600185901b178555610e2a565b600085815260208120601f198616915b82811015610ec557888601518255948401946001909101908401610ea6565b5085821015610ee35787850151600019600388901b60f8161c191681555b5050505050600190811b0190555056fea264697066735822122016e53ba1f081f4ee3f4ce819f0cd6bbced3f87299cbe8c8bb37bba7432c017ab64736f6c63430008130033",
  "linkReferences": {},
  "deployedLinkReferences": {}
}