{
  "_format": "hh-sol-artifact-1",
  "contractName": "VCRegistry",
  "sourceName": "src/contracts/VCRegistry.sol",
  "abi": [
    {
      "anonymous": false,
      "inputs": [
        {
          "indexed": true,
          "internalType": "string",
          "name": "vcId",
          "type": "string"
        },
        {
          "indexed": true,
          "internalType": "string",
          "name": "issuerDid",
          "type": "string"
        },
        {
          "indexed": true,
          "internalType": "string",
          "name": "holderDid",
          "type": "string"
        },
        {
          "indexed": false,
          "internalType": "bytes32",
          "name": "vcHash",
          "type": "bytes32"
        },
        {
          "indexed": false,
          "internalType": "uint256",
          "name": "timestamp",
          "type": "uint256"
        }
      ],
      "name": "VCIssued",
      "type": "event"
    },
    {
      "anonymous": false,
      "inputs": [
        {
          "indexed": true,
          "internalType": "string",
          "name": "vcId",
          "type": "string"
        },
        {
          "indexed": true,
          "internalType": "address",
          "name": "revokedBy",
          "type": "address"
        },
        {
          "indexed": false,
          "internalType": "uint256",
          "name": "timestamp",
          "type": "uint256"
        }
      ],
      "name": "VCRevoked",
      "type": "event"
    },
    {
      "inputs": [
        {
          "internalType": "string",
          "name": "",
          "type": "string"
        }
      ],
      "name": "credentials",
      "outputs": [
        {
          "internalType": "bytes32",
          "name": "vcHash",
          "type": "bytes32"
        },
        {
          "internalType": "string",
          "name": "issuerDid",
          "type": "string"
        },
        {
          "internalType": "string",
          "name": "holderDid",
          "type": "string"
        },
        {
          "internalType": "string",
          "name": "credentialType",
          "type": "string"
        },
        {
          "internalType": "uint256",
          "name": "issuedAt",
          "type": "uint256"
        },
        {
          "internalType": "uint256",
          "name": "expiresAt",
          "type": "uint256"
        },
        {
          "internalType": "bool",
          "name": "revoked",
          "type": "bool"
        },
        {
          "internalType": "address",
          "name": "issuerAddress",
          "type": "address"
        }
      ],
      "stateMutability": "view",
      "type": "function"
    },
    {
      "inputs": [
        {
          "internalType": "string",
          "name": "vcId",
          "type": "string"
        }
      ],
      "name": "getVC",
      "outputs": [
        {
          "internalType": "bytes32",
          "name": "vcHash",
          "type": "bytes32"
        },
        {
          "internalType": "string",
          "name": "issuerDid",
          "type": "string"
        },
        {
          "internalType": "string",
          "name": "holderDid",
          "type": "string"
        },
        {
          "internalType": "string",
          "name": "credentialType",
          "type": "string"
        },
        {
          "internalType": "uint256",
          "name": "issuedAt",
          "type": "uint256"
        },
        {
          "internalType": "uint256",
          "name": "expiresAt",
          "type": "uint256"
        },
        {
          "internalType": "bool",
          "name": "revoked",
          "type": "bool"
        }
      ],
      "stateMutability": "view",
      "type": "function"
    },
    {
      "inputs": [
        {
          "internalType": "string",
          "name": "issuerDid",
          "type": "string"
        }
      ],
      "name": "getVCsByIssuer",
      "outputs": [
        {
          "internalType": "string[]",
          "name": "",
          "type": "string[]"
        }
      ],
      "stateMutability": "view",
      "type": "function"
    },
    {
      "inputs": [
        {
          "internalType": "string",
          "name": "",
          "type": "string"
        },
        {
          "internalType": "uint256",
          "name": "",
          "type": "uint256"
        }
      ],
      "name": "holderCredentials",
      "outputs": [
        {
          "internalType": "string",
          "name": "",
          "type": "string"
        }
      ],
      "stateMutability": "view",
      "type": "function"
    },
    {
      "inputs": [
        {
          "internalType": "string",
          "name": "vcId",
          "type": "string"
        }
      ],
      "name": "isRevoked",
      "outputs": [
        {
          "internalType": "bool",
          "name": "",
          "type": "bool"
        }
      ],
      "stateMutability": "view",
      "type": "function"
    },
    {
      "inputs": [
        {
          "internalType": "string",
          "name": "vcId",
          "type": "string"
        },
        {
          "internalType": "bytes32",
          "name": "vcHash",
          "type": "bytes32"
        },
        {
          "internalType": "string",
          "name": "issuerDid",
          "type": "string"
        },
        {
          "internalType": "string",
          "name": "holderDid",
          "type": "string"
        },
        {
          "internalType": "string",
          "name": "credentialType",
          "type": "string"
        },
        {
          "internalType": "uint256",
          "name": "expiresAt",
          "type": "uint256"
        }
      ],
      "name": "issueVC",
      "outputs": [],
      "stateMutability": "nonpayable",
      "type": "function"
    },
    {
      "inputs": [
        {
          "internalType": "string",
          "name": "",
          "type": "string"
        },
        {
          "internalType": "uint256",
          "name": "",
          "type": "uint256"
        }
      ],
      "name": "issuerCredentials",
      "outputs": [
        {
          "internalType": "string",
          "name": "",
          "type": "string"
        }
      ],
      "stateMutability": "view",
      "type": "function"
    },
    {
      "inputs": [
        {
          "internalType": "string",
          "name": "vcId",
          "type": "string"
        }
      ],
      "name": "revokeVC",
      "outputs": [],
      "stateMutability": "nonpayable",
      "type": "function"
    },
    {
      "inputs": [
        {
          "internalType": "string",
          "name": "vcId",
          "type": "string"
        },
        {
          "internalType": "bytes32",
          "name": "vcHash",
          "type": "bytes32"
        }
      ],
      "name": "verifyVC",
      "outputs": [
        {
          "internalType": "bool",
          "name": "hashValid",
          "type": "bool"
        },
        {
          "internalType": "bool",
          "name": "isRevoked",
          "type": "bool"
        },
        {
          "internalType": "bool",
          "name": "isExpired",
          "type": "bool"
        },
        {
          "internalType": "bool",
          "name": "exists",
          "type": "bool"
        }
      ],
      "stateMutability": "view",
      "type": "function"
    }
  ],
  "bytecode": "0x608060405234801561001057600080fd5b506111d4806100206000396000f3fe608060405234801561001057600080fd5b50600436106100935760003560e01c806347459ece1161006657806347459ece14610132578063bf4af9b114610152578063d905515a14610179578063e1b6cab41461019f578063eca294af146101b257600080fd5b8063267b7b231461009857806335168a00146100ad578063379f7582146100d557806341351d8b14610112575b600080fd5b6100ab6100a6366004610d58565b6101c5565b005b6100c06100bb366004610d58565b610348565b60405190151581526020015b60405180910390f35b6100e86100e3366004610d95565b610375565b604080519415158552921515602085015290151591830191909152151560608201526080016100cc565b610125610120366004610d95565b6103ff565b6040516100cc9190610e2a565b610145610140366004610d58565b6104c7565b6040516100cc9190610e44565b610165610160366004610d58565b6105be565b6040516100cc989796959493929190610ea6565b61018c610187366004610d58565b6107b1565b6040516100cc9796959493929190610f19565b6100ab6101ad366004610f7a565b6109c9565b6101256101c0366004610d95565b610c8a565b80336001600160a01b03166000826040516101e09190611039565b908152604051908190036020019020600601546001600160a01b0361010090910416146102545760405162461bcd60e51b815260206004820152601a60248201527f564352656769737472793a206e6f74207468652069737375657200000000000060448201526064015b60405180910390fd5b6000826040516102649190611039565b9081526040519081900360200190206006015460ff16156102c75760405162461bcd60e51b815260206004820152601b60248201527f564352656769737472793a20616c7265616479207265766f6b65640000000000604482015260640161024b565b60016000836040516102d99190611039565b908152604051908190036020018120600601805492151560ff1990931692909217909155339061030a908490611039565b604051908190038120428252907fc6cc20b2e39394b9d688742deedfef73043f7fd02eb0650e4e45331b578d35749060200160405180910390a35050565b600080826040516103599190611039565b9081526040519081900360200190206006015460ff1692915050565b6000806000806000808760405161038c9190611039565b9081526020016040518091039020905060008160010180546103ad90611055565b9050119150816103cb576000806000809450945094509450506103f6565b805460068201546005830154918814965060ff169450158015906103f25750806005015442115b9250505b92959194509250565b8151602081840181018051600182529282019185019190912091905280548290811061042a57600080fd5b9060005260206000200160009150915050805461044690611055565b80601f016020809104026020016040519081016040528092919081815260200182805461047290611055565b80156104bf5780601f10610494576101008083540402835291602001916104bf565b820191906000526020600020905b8154815290600101906020018083116104a257829003601f168201915b505050505081565b60606001826040516104d99190611039565b9081526020016040518091039020805480602002602001604051908101604052809291908181526020016000905b828210156105b357838290600052602060002001805461052690611055565b80601f016020809104026020016040519081016040528092919081815260200182805461055290611055565b801561059f5780601f106105745761010080835404028352916020019161059f565b820191906000526020600020905b81548152906001019060200180831161058257829003601f168201915b505050505081526020019060010190610507565b505050509050919050565b8051602081830181018051600082529282019190930120915280546001820180549192916105eb90611055565b80601f016020809104026020016040519081016040528092919081815260200182805461061790611055565b80156106645780601f1061063957610100808354040283529160200191610664565b820191906000526020600020905b81548152906001019060200180831161064757829003601f168201915b50505050509080600201805461067990611055565b80601f01602080910402602001604051908101604052809291908181526020018280546106a590611055565b80156106f25780601f106106c7576101008083540402835291602001916106f2565b820191906000526020600020905b8154815290600101906020018083116106d557829003601f168201915b50505050509080600301805461070790611055565b80601f016020809104026020016040519081016040528092919081815260200182805461073390611055565b80156107805780601f1061075557610100808354040283529160200191610780565b820191906000526020600020905b81548152906001019060200180831161076357829003601f168201915b50505050600483015460058401546006909401549293909290915060ff81169061010090046001600160a01b031688565b600060608060606000806000806000896040516107ce9190611039565b908152602001604051809103902090508060000154816001018260020183600301846004015485600501548660060160009054906101000a900460ff1685805461081790611055565b80601f016020809104026020016040519081016040528092919081815260200182805461084390611055565b80156108905780601f1061086557610100808354040283529160200191610890565b820191906000526020600020905b81548152906001019060200180831161087357829003601f168201915b505050505095508480546108a390611055565b80601f01602080910402602001604051908101604052809291908181526020018280546108cf90611055565b801561091c5780601f106108f15761010080835404028352916020019161091c565b820191906000526020600020905b8154815290600101906020018083116108ff57829003601f168201915b5050505050945083805461092f90611055565b80601f016020809104026020016040519081016040528092919081815260200182805461095b90611055565b80156109a85780601f1061097d576101008083540402835291602001916109a8565b820191906000526020600020905b81548152906001019060200180831161098b57829003601f168201915b50505050509350975097509750975097509750975050919395979092949650565b6000866040516109d99190611039565b908152602001604051809103902060010180546109f590611055565b159050610a445760405162461bcd60e51b815260206004820152601d60248201527f564352656769737472793a20564320616c726561647920657869737473000000604482015260640161024b565b84610a915760405162461bcd60e51b815260206004820152601f60248201527f564352656769737472793a20686173682063616e6e6f74206265207a65726f00604482015260640161024b565b604051806101000160405280868152602001858152602001848152602001838152602001428152602001828152602001600015158152602001336001600160a01b0316815250600087604051610ae79190611039565b9081526040516020918190038201902082518155908201516001820190610b0e90826110de565b5060408201516002820190610b2390826110de565b5060608201516003820190610b3890826110de565b506080820151600482015560a0820151600582015560c08201516006909101805460e0909301516001600160a01b031661010002610100600160a81b0319921515929092166001600160a81b031990931692909217179055604051600190610ba1908690611039565b908152604051602091819003820190208054600181018255600091825291902001610bcc87826110de565b50600283604051610bdd9190611039565b908152604051602091819003820190208054600181018255600091825291902001610c0887826110de565b5082604051610c179190611039565b604051809103902084604051610c2d9190611039565b604051809103902087604051610c439190611039565b60408051918290038220898352426020840152917fb8b79668a0d04c0c875731612b73a954559589402eba5d4499593396ad109ff0910160405180910390a4505050505050565b8151602081840181018051600282529282019185019190912091905280548290811061042a57600080fd5b634e487b7160e01b600052604160045260246000fd5b600082601f830112610cdc57600080fd5b813567ffffffffffffffff80821115610cf757610cf7610cb5565b604051601f8301601f19908116603f01168101908282118183101715610d1f57610d1f610cb5565b81604052838152866020858801011115610d3857600080fd5b836020870160208301376000602085830101528094505050505092915050565b600060208284031215610d6a57600080fd5b813567ffffffffffffffff811115610d8157600080fd5b610d8d84828501610ccb565b949350505050565b60008060408385031215610da857600080fd5b823567ffffffffffffffff811115610dbf57600080fd5b610dcb85828601610ccb565b95602094909401359450505050565b60005b83811015610df5578181015183820152602001610ddd565b50506000910152565b60008151808452610e16816020860160208601610dda565b601f01601f19169290920160200192915050565b602081526000610e3d6020830184610dfe565b9392505050565b6000602080830181845280855180835260408601915060408160051b870101925083870160005b82811015610e9957603f19888603018452610e87858351610dfe565b94509285019290850190600101610e6b565b5092979650505050505050565b60006101008a8352806020840152610ec08184018b610dfe565b90508281036040840152610ed4818a610dfe565b90508281036060840152610ee88189610dfe565b6080840197909752505060a081019390935290151560c08301526001600160a01b031660e090910152949350505050565b87815260e060208201526000610f3260e0830189610dfe565b8281036040840152610f448189610dfe565b90508281036060840152610f588188610dfe565b6080840196909652505060a0810192909252151560c090910152949350505050565b60008060008060008060c08789031215610f9357600080fd5b863567ffffffffffffffff80821115610fab57600080fd5b610fb78a838b01610ccb565b9750602089013596506040890135915080821115610fd457600080fd5b610fe08a838b01610ccb565b95506060890135915080821115610ff657600080fd5b6110028a838b01610ccb565b9450608089013591508082111561101857600080fd5b5061102589828a01610ccb565b92505060a087013590509295509295509295565b6000825161104b818460208701610dda565b9190910192915050565b600181811c9082168061106957607f821691505b60208210810361108957634e487b7160e01b600052602260045260246000fd5b50919050565b601f8211156110d957600081815260208120601f850160051c810160208610156110b65750805b601f850160051c820191505b818110156110d5578281556001016110c2565b5050505b505050565b815167ffffffffffffffff8111156110f8576110f8610cb5565b61110c816111068454611055565b8461108f565b602080601f83116001811461114157600084156111295750858301515b600019600386901b1c1916600185901b1785556110d5565b600085815260208120601f198616915b8281101561117057888601518255948401946001909101908401611151565b508582101561118e5787850151600019600388901b60f8161c191681555b5050505050600190811b0190555056fea264697066735822122035e40758af716ce3d153e42240030c8a99d6fc9d5d74a38fa3d88a0c8d13bb8b64736f6c63430008130033",
  "linkReferences": {},
  "deployedLinkReferences": {}
}